{
  "contractName": "AuctionManager",
  "abi": [
    {
      "anonymous": false,
      "inputs": [
        {
          "indexed": false,
          "internalType": "uint256",
          "name": "auctionId",
          "type": "uint256"
        },
        {
          "indexed": false,
          "internalType": "address",
          "name": "owner",
          "type": "address"
        },
        {
          "indexed": false,
          "internalType": "uint256",
          "name": "endTime",
          "type": "uint256"
        }
      ],
      "name": "AuctionCreated",
      "type": "event"
    },
    {
      "anonymous": false,
      "inputs": [
        {
          "indexed": false,
          "internalType": "uint256",
          "name": "auctionId",
          "type": "uint256"
        },
        {
          "indexed": false,
          "internalType": "address",
          "name": "winner",
          "type": "address"
        },
        {
          "indexed": false,
          "internalType": "uint256",
          "name": "amount",
          "type": "uint256"
        }
      ],
      "name": "AuctionEnded",
      "type": "event"
    },
    {
      "anonymous": false,
      "inputs": [
        {
          "indexed": false,
          "internalType": "uint256",
          "name": "auctionId",
          "type": "uint256"
        },
        {
          "indexed": false,
          "internalType": "address",
          "name": "bidder",
          "type": "address"
        },
        {
          "indexed": false,
          "internalType": "uint256",
          "name": "amount",
          "type": "uint256"
        }
      ],
      "name": "HighestBidIncreased",
      "type": "event"
    },
    {
      "anonymous": false,
      "inputs": [
        {
          "indexed": false,
          "internalType": "address",
          "name": "recipient",
          "type": "address"
        },
        {
          "indexed": false,
          "internalType": "uint256",
          "name": "amount",
          "type": "uint256"
        }
      ],
      "name": "TransferFailed",
      "type": "event"
    },
    {
      "anonymous": false,
      "inputs": [
        {
          "indexed": false,
          "internalType": "address",
          "name": "recipient",
          "type": "address"
        },
        {
          "indexed": false,
          "internalType": "uint256",
          "name": "amount",
          "type": "uint256"
        }
      ],
      "name": "TransferSuccessful",
      "type": "event"
    },
    {
      "inputs": [],
      "name": "auctionCount",
      "outputs": [
        {
          "internalType": "uint256",
          "name": "",
          "type": "uint256"
        }
      ],
      "stateMutability": "view",
      "type": "function",
      "constant": true
    },
    {
      "inputs": [
        {
          "internalType": "uint256",
          "name": "",
          "type": "uint256"
        }
      ],
      "name": "auctions",
      "outputs": [
        {
          "internalType": "address payable",
          "name": "owner",
          "type": "address"
        },
        {
          "internalType": "uint256",
          "name": "auctionEndTime",
          "type": "uint256"
        },
        {
          "internalType": "address payable",
          "name": "highestBidder",
          "type": "address"
        },
        {
          "internalType": "uint256",
          "name": "highestBid",
          "type": "uint256"
        },
        {
          "internalType": "bool",
          "name": "ended",
          "type": "bool"
        }
      ],
      "stateMutability": "view",
      "type": "function",
      "constant": true
    },
    {
      "inputs": [
        {
          "internalType": "uint256",
          "name": "_biddingTime",
          "type": "uint256"
        }
      ],
      "name": "createAuction",
      "outputs": [],
      "stateMutability": "nonpayable",
      "type": "function"
    },
    {
      "inputs": [
        {
          "internalType": "uint256",
          "name": "auctionId",
          "type": "uint256"
        }
      ],
      "name": "bid",
      "outputs": [],
      "stateMutability": "payable",
      "type": "function",
      "payable": true
    },
    {
      "inputs": [
        {
          "internalType": "uint256",
          "name": "auctionId",
          "type": "uint256"
        }
      ],
      "name": "endAuction",
      "outputs": [],
      "stateMutability": "nonpayable",
      "type": "function"
    },
    {
      "inputs": [
        {
          "internalType": "uint256",
          "name": "auctionId",
          "type": "uint256"
        }
      ],
      "name": "getAuctionDetails",
      "outputs": [
        {
          "internalType": "address",
          "name": "highestBidder",
          "type": "address"
        }
      ],
      "stateMutability": "view",
      "type": "function",
      "constant": true
    },
    {
      "inputs": [
        {
          "internalType": "uint256",
          "name": "auctionId",
          "type": "uint256"
        }
      ],
      "name": "getHighestBid",
      "outputs": [
        {
          "internalType": "uint256",
          "name": "",
          "type": "uint256"
        }
      ],
      "stateMutability": "view",
      "type": "function",
      "constant": true
    }
  ],
  "bytecode": "0x608060405234801561001057600080fd5b50610e4e806100206000396000f3fe6080604052600436106100705760003560e01c80638f2886441161004e5780638f288644146100fd578063b9a2de3a1461013a578063d5563f3114610163578063f20e5e351461018c57610070565b80632ad7157314610075578063454a2ab3146100a0578063571a26a0146100bc575b600080fd5b34801561008157600080fd5b5061008a6101c9565b6040516100979190610811565b60405180910390f35b6100ba60048036038101906100b5919061085d565b6101cf565b005b3480156100c857600080fd5b506100e360048036038101906100de919061085d565b6103ec565b6040516100f49594939291906108e6565b60405180910390f35b34801561010957600080fd5b50610124600480360381019061011f919061085d565b61046f565b6040516101319190610811565b60405180910390f35b34801561014657600080fd5b50610161600480360381019061015c919061085d565b610494565b005b34801561016f57600080fd5b5061018a6004803603810190610185919061085d565b6106e8565b005b34801561019857600080fd5b506101b360048036038101906101ae919061085d565b6107b3565b6040516101c0919061095a565b60405180910390f35b60005481565b6000600160008381526020019081526020016000209050806001015442111561022d576040517f08c379a0000000000000000000000000000000000000000000000000000000008152600401610224906109d2565b60405180910390fd5b80600301543411610273576040517f08c379a000000000000000000000000000000000000000000000000000000000815260040161026a90610a3e565b60405180910390fd5b60008160030154146103615760008160020160009054906101000a900473ffffffffffffffffffffffffffffffffffffffff16905060008260030154905060008273ffffffffffffffffffffffffffffffffffffffff16826040516102d790610a8f565b60006040518083038185875af1925050503d8060008114610314576040519150601f19603f3d011682016040523d82523d6000602084013e610319565b606091505b505090508061035d576040517f08c379a000000000000000000000000000000000000000000000000000000000815260040161035490610b16565b60405180910390fd5b5050505b338160020160006101000a81548173ffffffffffffffffffffffffffffffffffffffff021916908373ffffffffffffffffffffffffffffffffffffffff1602179055503481600301819055507fda0a18da71d8ebd145966339a728fc0d8ccc07c22870d561890d823c515dda6b8233346040516103e093929190610b36565b60405180910390a15050565b60016020528060005260406000206000915090508060000160009054906101000a900473ffffffffffffffffffffffffffffffffffffffff16908060010154908060020160009054906101000a900473ffffffffffffffffffffffffffffffffffffffff16908060030154908060040160009054906101000a900460ff16905085565b6000806001600084815260200190815260200160002090508060030154915050919050565b60006001600083815260200190815260200160002090508060000160009054906101000a900473ffffffffffffffffffffffffffffffffffffffff1673ffffffffffffffffffffffffffffffffffffffff163373ffffffffffffffffffffffffffffffffffffffff161461053d576040517f08c379a000000000000000000000000000000000000000000000000000000000815260040161053490610bb9565b60405180910390fd5b8060040160009054906101000a900460ff161561058f576040517f08c379a000000000000000000000000000000000000000000000000000000000815260040161058690610c25565b60405180910390fd5b60018160040160006101000a81548160ff0219169083151502179055507fd2aa34a4fdbbc6dff6a3e56f46e0f3ae2a31d7785ff3487aa5c95c642acea501828260020160009054906101000a900473ffffffffffffffffffffffffffffffffffffffff16836003015460405161060793929190610ca4565b60405180910390a160008160000160009054906101000a900473ffffffffffffffffffffffffffffffffffffffff1673ffffffffffffffffffffffffffffffffffffffff16826003015460405161065d90610a8f565b60006040518083038185875af1925050503d806000811461069a576040519150601f19603f3d011682016040523d82523d6000602084013e61069f565b606091505b50509050806106e3576040517f08c379a00000000000000000000000000000000000000000000000000000000081526004016106da90610d4d565b60405180910390fd5b505050565b6000808154809291906106fa90610d9c565b9190505550600060016000805481526020019081526020016000209050338160000160006101000a81548173ffffffffffffffffffffffffffffffffffffffff021916908373ffffffffffffffffffffffffffffffffffffffff16021790555081426107669190610de4565b81600101819055507f6ff530872708bbb51bad8ea341564e4ea039807ad1331f61ab4c906a66875daf6000543383600101546040516107a793929190610b36565b60405180910390a15050565b6000806001600084815260200190815260200160002090508060020160009054906101000a900473ffffffffffffffffffffffffffffffffffffffff16915050919050565b6000819050919050565b61080b816107f8565b82525050565b60006020820190506108266000830184610802565b92915050565b600080fd5b61083a816107f8565b811461084557600080fd5b50565b60008135905061085781610831565b92915050565b6000602082840312156108735761087261082c565b5b600061088184828501610848565b91505092915050565b600073ffffffffffffffffffffffffffffffffffffffff82169050919050565b60006108b58261088a565b9050919050565b6108c5816108aa565b82525050565b60008115159050919050565b6108e0816108cb565b82525050565b600060a0820190506108fb60008301886108bc565b6109086020830187610802565b61091560408301866108bc565b6109226060830185610802565b61092f60808301846108d7565b9695505050505050565b60006109448261088a565b9050919050565b61095481610939565b82525050565b600060208201905061096f600083018461094b565b92915050565b600082825260208201905092915050565b7f41756374696f6e20616c726561647920656e6465642e00000000000000000000600082015250565b60006109bc601683610975565b91506109c782610986565b602082019050919050565b600060208201905081810360008301526109eb816109af565b9050919050565b7f546865726520616c7265616479206973206120686967686572206269642e0000600082015250565b6000610a28601e83610975565b9150610a33826109f2565b602082019050919050565b60006020820190508181036000830152610a5781610a1b565b9050919050565b600081905092915050565b50565b6000610a79600083610a5e565b9150610a8482610a69565b600082019050919050565b6000610a9a82610a6c565b9150819050919050565b7f526566756e6420746f2070726576696f757320626964646572206661696c656460008201527f2e00000000000000000000000000000000000000000000000000000000000000602082015250565b6000610b00602183610975565b9150610b0b82610aa4565b604082019050919050565b60006020820190508181036000830152610b2f81610af3565b9050919050565b6000606082019050610b4b6000830186610802565b610b58602083018561094b565b610b656040830184610802565b949350505050565b7f596f7520617265206e6f74207468652061756374696f6e206f776e65722e0000600082015250565b6000610ba3601e83610975565b9150610bae82610b6d565b602082019050919050565b60006020820190508181036000830152610bd281610b96565b9050919050565b7f41756374696f6e20656e6420616c72656164792063616c6c65642e0000000000600082015250565b6000610c0f601b83610975565b9150610c1a82610bd9565b602082019050919050565b60006020820190508181036000830152610c3e81610c02565b9050919050565b6000819050919050565b6000610c6a610c65610c608461088a565b610c45565b61088a565b9050919050565b6000610c7c82610c4f565b9050919050565b6000610c8e82610c71565b9050919050565b610c9e81610c83565b82525050565b6000606082019050610cb96000830186610802565b610cc66020830185610c95565b610cd36040830184610802565b949350505050565b7f5472616e7366657220746f2061756374696f6e206f776e6572206661696c656460008201527f2e00000000000000000000000000000000000000000000000000000000000000602082015250565b6000610d37602183610975565b9150610d4282610cdb565b604082019050919050565b60006020820190508181036000830152610d6681610d2a565b9050919050565b7f4e487b7100000000000000000000000000000000000000000000000000000000600052601160045260246000fd5b6000610da7826107f8565b91507fffffffffffffffffffffffffffffffffffffffffffffffffffffffffffffffff8203610dd957610dd8610d6d565b5b600182019050919050565b6000610def826107f8565b9150610dfa836107f8565b9250828201905080821115610e1257610e11610d6d565b5b9291505056fea26469706673582212204afb964c0b49b97c52a8f45f08637d5d50b86665c266242b472714b18e0b24a164736f6c63430008130033",
  "immutableReferences": {},
  "source": "// SPDX-License-Identifier: MIT\npragma solidity ^0.8.19;\n\ncontract AuctionManager {\n    struct Auction {\n        address payable owner;\n        uint auctionEndTime;\n        address payable highestBidder;\n        uint highestBid;\n        bool ended;\n    }\n\n    uint public auctionCount;\n    mapping(uint => Auction) public auctions;\n\n    event AuctionCreated(uint auctionId, address owner, uint endTime);\n    event HighestBidIncreased(uint auctionId, address bidder, uint amount);\n    event AuctionEnded(uint auctionId, address winner, uint amount);\n    event TransferSuccessful(address recipient, uint amount);\n    event TransferFailed(address recipient, uint amount);\n\n    function createAuction(uint _biddingTime) public {\n        auctionCount++;\n        Auction storage newAuction = auctions[auctionCount];\n        newAuction.owner = payable(msg.sender);\n        newAuction.auctionEndTime = block.timestamp + _biddingTime;\n        emit AuctionCreated(\n            auctionCount,\n            msg.sender,\n            newAuction.auctionEndTime\n        );\n    }\n\n    function bid(uint auctionId) public payable {\n        Auction storage auction = auctions[auctionId];\n\n        require(\n            block.timestamp <= auction.auctionEndTime,\n            \"Auction already ended.\"\n        );\n        require(\n            msg.value > auction.highestBid,\n            \"There already is a higher bid.\"\n        );\n\n        // Automatically refund the previous highest bidder, if there is one\n        if (auction.highestBid != 0) {\n            address payable previousBidder = auction.highestBidder;\n            uint previousBid = auction.highestBid;\n\n            // Use `call` to refund the previous bidder to handle errors more gracefully\n            (bool success, ) = previousBidder.call{value: previousBid}(\"\");\n            require(success, \"Refund to previous bidder failed.\");\n        }\n\n        auction.highestBidder = payable(msg.sender);\n        auction.highestBid = msg.value;\n\n        emit HighestBidIncreased(auctionId, msg.sender, msg.value);\n    }\n\n    function endAuction(uint auctionId) public {\n        Auction storage auction = auctions[auctionId];\n        require(msg.sender == auction.owner, \"You are not the auction owner.\");\n        require(!auction.ended, \"Auction end already called.\");\n        auction.ended = true;\n        emit AuctionEnded(auctionId, auction.highestBidder, auction.highestBid);\n\n        (bool success, ) = auction.owner.call{value: auction.highestBid}(\"\");\n        require(success, \"Transfer to auction owner failed.\"); // Check if the transfer succeeded\n    }\n\n    // Add a method to get auction details\n    function getAuctionDetails(\n        uint auctionId\n    ) public view returns (address highestBidder) {\n        Auction storage auction = auctions[auctionId];\n        return (auction.highestBidder);\n    }\n    function getHighestBid(uint auctionId) public view returns (uint) {\n    Auction storage auction = auctions[auctionId];\n    return auction.highestBid;\n}\n\n}\n",
  "sourcePath": "/home/blockchain/auction-app/contracts/AuctionManager.sol",
  "compiler": {
    "name": "solc",
    "version": "0.8.19+commit.7dd6d404.Emscripten.clang"
  },
  "schemaVersion": "3.4.16",
  "updatedAt": "2024-10-01T16:28:31.756Z",
  "networkType": "ethereum",
  "devdoc": {
    "kind": "dev",
    "methods": {},
    "version": 1
  },
  "userdoc": {
    "kind": "user",
    "methods": {},
    "version": 1
  }
}